{
    "_format": "hh-sol-artifact-1",
    "contractName": "VoteContract",
    "sourceName": "contracts/Vote.sol",
    "abi": [
        {
            "inputs": [
                {
                    "internalType": "string",
                    "name": "_name",
                    "type": "string"
                },
                {
                    "internalType": "string",
                    "name": "_stakeholder",
                    "type": "string"
                },
                {
                    "internalType": "uint256",
                    "name": "_voteID",
                    "type": "uint256"
                }
            ],
            "name": "addCandidate",
            "outputs": [],
            "stateMutability": "nonpayable",
            "type": "function"
        },
        {
            "inputs": [
                {
                    "internalType": "uint256",
                    "name": "",
                    "type": "uint256"
                }
            ],
            "name": "candidateDetails",
            "outputs": [
                {
                    "internalType": "string",
                    "name": "name",
                    "type": "string"
                },
                {
                    "internalType": "string",
                    "name": "stakeholder",
                    "type": "string"
                },
                {
                    "internalType": "uint256",
                    "name": "voteCount",
                    "type": "uint256"
                },
                {
                    "internalType": "uint256",
                    "name": "voteID",
                    "type": "uint256"
                },
                {
                    "internalType": "uint256",
                    "name": "candidateId",
                    "type": "uint256"
                }
            ],
            "stateMutability": "view",
            "type": "function"
        },
        {
            "inputs": [],
            "name": "endElection",
            "outputs": [],
            "stateMutability": "nonpayable",
            "type": "function"
        },
        {
            "inputs": [],
            "name": "getCandidateNumber",
            "outputs": [
                {
                    "internalType": "uint256",
                    "name": "",
                    "type": "uint256"
                }
            ],
            "stateMutability": "view",
            "type": "function"
        },
        {
            "inputs": [],
            "name": "getEnd",
            "outputs": [
                {
                    "internalType": "bool",
                    "name": "",
                    "type": "bool"
                }
            ],
            "stateMutability": "view",
            "type": "function"
        },
        {
            "inputs": [],
            "name": "getOwner",
            "outputs": [
                {
                    "internalType": "address",
                    "name": "",
                    "type": "address"
                }
            ],
            "stateMutability": "view",
            "type": "function"
        },
        {
            "inputs": [],
            "name": "getStart",
            "outputs": [
                {
                    "internalType": "bool",
                    "name": "",
                    "type": "bool"
                }
            ],
            "stateMutability": "view",
            "type": "function"
        },
        {
            "inputs": [],
            "name": "getVoterCount",
            "outputs": [
                {
                    "internalType": "uint256",
                    "name": "",
                    "type": "uint256"
                }
            ],
            "stateMutability": "view",
            "type": "function"
        },
        {
            "inputs": [],
            "name": "owner",
            "outputs": [
                {
                    "internalType": "address",
                    "name": "",
                    "type": "address"
                }
            ],
            "stateMutability": "view",
            "type": "function"
        },
        {
            "inputs": [
                {
                    "internalType": "string",
                    "name": "_name",
                    "type": "string"
                },
                {
                    "internalType": "uint256",
                    "name": "_constituency",
                    "type": "uint256"
                }
            ],
            "name": "requestVoter",
            "outputs": [],
            "stateMutability": "nonpayable",
            "type": "function"
        },
        {
            "inputs": [],
            "name": "startElection",
            "outputs": [],
            "stateMutability": "nonpayable",
            "type": "function"
        },
        {
            "inputs": [
                {
                    "internalType": "address",
                    "name": "_address",
                    "type": "address"
                }
            ],
            "name": "verifyVoter",
            "outputs": [],
            "stateMutability": "nonpayable",
            "type": "function"
        },
        {
            "inputs": [
                {
                    "internalType": "uint256",
                    "name": "candidateId",
                    "type": "uint256"
                }
            ],
            "name": "vote",
            "outputs": [],
            "stateMutability": "nonpayable",
            "type": "function"
        },
        {
            "inputs": [],
            "name": "voteContract",
            "outputs": [],
            "stateMutability": "nonpayable",
            "type": "function"
        },
        {
            "inputs": [
                {
                    "internalType": "address",
                    "name": "",
                    "type": "address"
                }
            ],
            "name": "voterDetails",
            "outputs": [
                {
                    "internalType": "address",
                    "name": "voterAddress",
                    "type": "address"
                },
                {
                    "internalType": "string",
                    "name": "name",
                    "type": "string"
                },
                {
                    "internalType": "uint256",
                    "name": "constituency",
                    "type": "uint256"
                },
                {
                    "internalType": "bool",
                    "name": "hasVoted",
                    "type": "bool"
                },
                {
                    "internalType": "bool",
                    "name": "isVerified",
                    "type": "bool"
                }
            ],
            "stateMutability": "view",
            "type": "function"
        },
        {
            "inputs": [
                {
                    "internalType": "uint256",
                    "name": "",
                    "type": "uint256"
                }
            ],
            "name": "voters",
            "outputs": [
                {
                    "internalType": "address",
                    "name": "",
                    "type": "address"
                }
            ],
            "stateMutability": "view",
            "type": "function"
        }
    ],
    "bytecode": "0x608060405234801561001057600080fd5b50611328806100206000396000f3fe608060405234801561001057600080fd5b50600436106101005760003560e01c80636247e532116100975780639f05a36d116100665780639f05a36d14610269578063c5292c6714610287578063da58c7d9146102a5578063ee183c4a146102d557610100565b80636247e532146101ef57806362d73eb814610223578063893d20e81461022d5780638da5cb5b1461024b57610100565b8063364dff25116100d3578063364dff25146101775780633ca09fdf146101955780635938750d146101b157806359f78468146101e557610100565b80630121b93f1461010557806309bd09501461012157806311174a291461013d5780632515759c1461015b575b600080fd5b61011f600480360381019061011a9190610ed6565b6102df565b005b61013b60048036038101906101369190610dda565b61046b565b005b610145610521565b6040516101529190611056565b60405180910390f35b61017560048036038101906101709190610e82565b61052b565b005b61017f6106e5565b60405161018c9190611056565b60405180910390f35b6101af60048036038101906101aa9190610e03565b6106ef565b005b6101cb60048036038101906101c69190610dda565b610805565b6040516101dc959493929190610f80565b60405180910390f35b6101ed6108fd565b005b61020960048036038101906102049190610ed6565b61098d565b60405161021a959493929190610ff5565b60405180910390f35b61022b610ad3565b005b610235610b63565b6040516102429190610f65565b60405180910390f35b610253610b8c565b6040516102609190610f65565b60405180910390f35b610271610bb0565b60405161027e9190610fda565b60405180910390f35b61028f610bc7565b60405161029c9190610fda565b60405180910390f35b6102bf60048036038101906102ba9190610ed6565b610bde565b6040516102cc9190610f65565b60405180910390f35b6102dd610c1d565b005b60001515600660003373ffffffffffffffffffffffffffffffffffffffff1673ffffffffffffffffffffffffffffffffffffffff16815260200190815260200160002060030160009054906101000a900460ff1615151461033f57600080fd5b60011515600660003373ffffffffffffffffffffffffffffffffffffffff1673ffffffffffffffffffffffffffffffffffffffff16815260200190815260200160002060030160019054906101000a900460ff1615151461039f57600080fd5b60011515600360009054906101000a900460ff161515146103bf57600080fd5b60001515600360019054906101000a900460ff161515146103df57600080fd5b600160046000838152602001908152602001600020600201600082825461040691906110e3565b925050819055506001600660003373ffffffffffffffffffffffffffffffffffffffff1673ffffffffffffffffffffffffffffffffffffffff16815260200190815260200160002060030160006101000a81548160ff02191690831515021790555050565b60008054906101000a900473ffffffffffffffffffffffffffffffffffffffff1673ffffffffffffffffffffffffffffffffffffffff163373ffffffffffffffffffffffffffffffffffffffff16146104c357600080fd5b6001600660008373ffffffffffffffffffffffffffffffffffffffff1673ffffffffffffffffffffffffffffffffffffffff16815260200190815260200160002060030160016101000a81548160ff02191690831515021790555050565b6000600254905090565b60006040518060a001604052803373ffffffffffffffffffffffffffffffffffffffff16815260200184815260200183815260200160001515815260200160001515815250905080600660003373ffffffffffffffffffffffffffffffffffffffff1673ffffffffffffffffffffffffffffffffffffffff16815260200190815260200160002060008201518160000160006101000a81548173ffffffffffffffffffffffffffffffffffffffff021916908373ffffffffffffffffffffffffffffffffffffffff1602179055506020820151816001019080519060200190610615929190610ca5565b506040820151816002015560608201518160030160006101000a81548160ff02191690831515021790555060808201518160030160016101000a81548160ff0219169083151502179055509050506005339080600181540180825580915050600190039060005260206000200160009091909190916101000a81548173ffffffffffffffffffffffffffffffffffffffff021916908373ffffffffffffffffffffffffffffffffffffffff1602179055506001600260008282546106d991906110e3565b92505081905550505050565b6000600154905090565b60008054906101000a900473ffffffffffffffffffffffffffffffffffffffff1673ffffffffffffffffffffffffffffffffffffffff163373ffffffffffffffffffffffffffffffffffffffff161461074757600080fd5b60006040518060a001604052808581526020018481526020016000815260200183815260200160015481525090508060046000600154815260200190815260200160002060008201518160000190805190602001906107a7929190610ca5565b5060208201518160010190805190602001906107c4929190610ca5565b5060408201518160020155606082015181600301556080820151816004015590505060018060008282546107f891906110e3565b9250508190555050505050565b60066020528060005260406000206000915090508060000160009054906101000a900473ffffffffffffffffffffffffffffffffffffffff169080600101805461084e906111c3565b80601f016020809104026020016040519081016040528092919081815260200182805461087a906111c3565b80156108c75780601f1061089c576101008083540402835291602001916108c7565b820191906000526020600020905b8154815290600101906020018083116108aa57829003601f168201915b5050505050908060020154908060030160009054906101000a900460ff16908060030160019054906101000a900460ff16905085565b60008054906101000a900473ffffffffffffffffffffffffffffffffffffffff1673ffffffffffffffffffffffffffffffffffffffff163373ffffffffffffffffffffffffffffffffffffffff161461095557600080fd5b6001600360016101000a81548160ff0219169083151502179055506000600360006101000a81548160ff021916908315150217905550565b60046020528060005260406000206000915090508060000180546109b0906111c3565b80601f01602080910402602001604051908101604052809291908181526020018280546109dc906111c3565b8015610a295780601f106109fe57610100808354040283529160200191610a29565b820191906000526020600020905b815481529060010190602001808311610a0c57829003601f168201915b505050505090806001018054610a3e906111c3565b80601f0160208091040260200160405190810160405280929190818152602001828054610a6a906111c3565b8015610ab75780601f10610a8c57610100808354040283529160200191610ab7565b820191906000526020600020905b815481529060010190602001808311610a9a57829003601f168201915b5050505050908060020154908060030154908060040154905085565b60008054906101000a900473ffffffffffffffffffffffffffffffffffffffff1673ffffffffffffffffffffffffffffffffffffffff163373ffffffffffffffffffffffffffffffffffffffff1614610b2b57600080fd5b6001600360006101000a81548160ff0219169083151502179055506000600360016101000a81548160ff021916908315150217905550565b60008060009054906101000a900473ffffffffffffffffffffffffffffffffffffffff16905090565b60008054906101000a900473ffffffffffffffffffffffffffffffffffffffff1681565b6000600360019054906101000a900460ff16905090565b6000600360009054906101000a900460ff16905090565b60058181548110610bee57600080fd5b906000526020600020016000915054906101000a900473ffffffffffffffffffffffffffffffffffffffff1681565b336000806101000a81548173ffffffffffffffffffffffffffffffffffffffff021916908373ffffffffffffffffffffffffffffffffffffffff160217905550600060018190555060006002819055506000600360006101000a81548160ff0219169083151502179055506000600360016101000a81548160ff021916908315150217905550565b828054610cb1906111c3565b90600052602060002090601f016020900481019282610cd35760008555610d1a565b82601f10610cec57805160ff1916838001178555610d1a565b82800160010185558215610d1a579182015b82811115610d19578251825591602001919060010190610cfe565b5b509050610d279190610d2b565b5090565b5b80821115610d44576000816000905550600101610d2c565b5090565b6000610d5b610d5684611096565b611071565b905082815260208101848484011115610d7357600080fd5b610d7e848285611181565b509392505050565b600081359050610d95816112c4565b92915050565b600082601f830112610dac57600080fd5b8135610dbc848260208601610d48565b91505092915050565b600081359050610dd4816112db565b92915050565b600060208284031215610dec57600080fd5b6000610dfa84828501610d86565b91505092915050565b600080600060608486031215610e1857600080fd5b600084013567ffffffffffffffff811115610e3257600080fd5b610e3e86828701610d9b565b935050602084013567ffffffffffffffff811115610e5b57600080fd5b610e6786828701610d9b565b9250506040610e7886828701610dc5565b9150509250925092565b60008060408385031215610e9557600080fd5b600083013567ffffffffffffffff811115610eaf57600080fd5b610ebb85828601610d9b565b9250506020610ecc85828601610dc5565b9150509250929050565b600060208284031215610ee857600080fd5b6000610ef684828501610dc5565b91505092915050565b610f0881611139565b82525050565b610f178161114b565b82525050565b6000610f28826110c7565b610f3281856110d2565b9350610f42818560208601611190565b610f4b816112b3565b840191505092915050565b610f5f81611177565b82525050565b6000602082019050610f7a6000830184610eff565b92915050565b600060a082019050610f956000830188610eff565b8181036020830152610fa78187610f1d565b9050610fb66040830186610f56565b610fc36060830185610f0e565b610fd06080830184610f0e565b9695505050505050565b6000602082019050610fef6000830184610f0e565b92915050565b600060a082019050818103600083015261100f8188610f1d565b905081810360208301526110238187610f1d565b90506110326040830186610f56565b61103f6060830185610f56565b61104c6080830184610f56565b9695505050505050565b600060208201905061106b6000830184610f56565b92915050565b600061107b61108c565b905061108782826111f5565b919050565b6000604051905090565b600067ffffffffffffffff8211156110b1576110b0611284565b5b6110ba826112b3565b9050602081019050919050565b600081519050919050565b600082825260208201905092915050565b60006110ee82611177565b91506110f983611177565b9250827fffffffffffffffffffffffffffffffffffffffffffffffffffffffffffffffff0382111561112e5761112d611226565b5b828201905092915050565b600061114482611157565b9050919050565b60008115159050919050565b600073ffffffffffffffffffffffffffffffffffffffff82169050919050565b6000819050919050565b82818337600083830152505050565b60005b838110156111ae578082015181840152602081019050611193565b838111156111bd576000848401525b50505050565b600060028204905060018216806111db57607f821691505b602082108114156111ef576111ee611255565b5b50919050565b6111fe826112b3565b810181811067ffffffffffffffff8211171561121d5761121c611284565b5b80604052505050565b7f4e487b7100000000000000000000000000000000000000000000000000000000600052601160045260246000fd5b7f4e487b7100000000000000000000000000000000000000000000000000000000600052602260045260246000fd5b7f4e487b7100000000000000000000000000000000000000000000000000000000600052604160045260246000fd5b6000601f19601f8301169050919050565b6112cd81611139565b81146112d857600080fd5b50565b6112e481611177565b81146112ef57600080fd5b5056fea2646970667358221220e05d7a08fda74b70ea2b2432d405a5cf057a98631a30426dbcd29290af003aa064736f6c63430008040033",
    "linkReferences": {},
    "deployedLinkReferences": {}
}